:020000040800F2
:1000000000200020613F0008A53D0008AF3D00082A
:1000100000000000000000000000000000000000E0
:10002000000000000000000000000000B53D0008D6
:100030000000000000000000BF3D0008C93D0008AE
:10004000B13F000800000000B13F0008B13F0008C8
:10005000B13F0008B13F0008B13F0008B13F0008C0
:1000600000000000B13F0008B13F0008B13F0008A8
:10007000B13F0008B13F0008B13F00080000000098
:10008000B13F0008D93D000800000000B13F000862
:10009000B13F0008B13F0008B13F0008B13F000880
:1000A000B13F0008B13F0008B13F0008B13F000870
:1000B000B13F000800000000000000000000000048
:1000C00010B5064C2378002B07D1054B002B02D02E
:1000D000044800E000BF0123237010BD6800002029
:1000E0000000000074410008044B10B5002B03D041
:1000F0000349044800E000BF10BDC04600000000F6
:100100006C00002074410008002243088B4274D325
:1001100003098B425FD3030A8B4244D3030B8B4208
:1001200028D3030C8B420DD3FF22090212BA030C11
:100130008B4202D31212090265D0030B8B4219D3F2
:1001400000E0090AC30B8B4201D3CB03C01A524112
:10015000830B8B4201D38B03C01A5241430B8B425A
:1001600001D34B03C01A5241030B8B4201D30B0343
:10017000C01A5241C30A8B4201D3CB02C01A52416A
:10018000830A8B4201D38B02C01A5241430A8B422D
:1001900001D34B02C01A5241030A8B4201D30B0216
:1001A000C01A5241CDD2C3098B4201D3CB01C01A30
:1001B000524183098B4201D38B01C01A524143093A
:1001C0008B4201D34B01C01A524103098B4201D328
:1001D0000B01C01A5241C3088B4201D3CB00C01A95
:1001E000524183088B4201D38B00C01A524143080D
:1001F0008B4201D34B00C01A5241411A00D2014632
:10020000524110467047FFE701B5002000F006F8A4
:1002100002BDC0460029F7D076E770477047C04658
:10022000F0B5CE46474615042D0C2E0080B50704C8
:10023000140C3F0C9946030C7E435D4367436343B4
:100240007F19340CE4199C46A54203D980235B0234
:100250009846C4444B4643435143250C36046544F9
:10026000360C2404A4195B19591820000CBC9046C4
:100270009946F0BD80B500AF074B1A68064B1021B8
:100280000A431A60002000F009F803F067FD00231C
:100290001800BD4680BDC0460020024080B582B037
:1002A00000AF786001F046FA0200FA2399001000CE
:1002B000FFF72AFF0300180000F024F979680123F2
:1002C0005B420022180000F0E1F800231800BD4650
:1002D00002B080BD80B500AF034B1B685A1C024BB7
:1002E0001A60C046BD4680BD9400002080B500AFB6
:1002F000024B1B681800BD4680BDC046940000201C
:1003000080B584B000AF7860FFF7F0FF0300BB60FA
:100310007B68FB60FB68013302D0FB680133FB6044
:10032000C046FFF7E3FF0200BB68D31AFA689A429F
:10033000F7D8C046BD4604B080BD000080B582B08D
:1003400000AF0200FB1D1A70FB1D1B781A001F2353
:100350001A40044B012191400A001A60C046BD4674
:1003600002B080BD00E100E090B583B000AF0200B4
:100370003960FB1D1A70FB1D1B787F2B32D92F4A69
:10038000FB1D1B7819000F230B40083B9B0806330D
:100390009B00D31804331B68FA1D12781100032246
:1003A0000A40D200FF2191400A00D2431A401100B6
:1003B0003B689B01FF221A40FB1D1B78180003239A
:1003C0000340DB009A401D48FB1D1B781C000F23D7
:1003D0002340083B9B080A4306339B00C3180433A1
:1003E0001A6027E0164AFB1D1B785BB29B08C033DE
:1003F0009B009B58FA1D1278110003220A40D2007C
:10040000FF2191400A00D2431A4011003B689B0132
:10041000FF221A40FB1D1B78180003230340DB005A
:100420009A400748FB1D1B785BB29B080A43C03308
:100430009B001A50C046BD4603B090BD00ED00E0E1
:1004400000E100E080B582B000AF78607B68013BDE
:100450000C4A934201D9012310E00B4B7A68013A10
:100460005A6001235B4203211800FFF77DFF064B12
:1004700000229A60044B07221A6000231800BD4630
:1004800002B080BDFFFFFF0010E000E080B584B047
:1004900000AFB9607A600F23FB18021C1A70BB68AA
:1004A000032B04D9084B9B21180003F0C4FBBA6846
:1004B0000F23FB181B785BB211001800FFF754FFE5
:1004C000C046BD4604B080BD8C41000880B582B0F6
:1004D00000AF0200FB1D1A70FB1D1B787F2B04D997
:1004E000074BAB21180003F0A6FBFB1D1B785BB28A
:1004F0001800FFF723FFC046BD4602B080BDC046CE
:100500008C41000880B582B000AF78607B6818002D
:10051000FFF798FF03001800BD4602B080BD000041
:1005200080B586B000AF7860396000237B6100231E
:10053000FB6000233B617A689023DB059A4214D06C
:100540007B68C24A934210D07B68C14A93420CD068
:100550007B68C04A934208D07B68BF4A934204D06C
:10056000BE4BC121180003F066FB3B681B681B04EF
:100570001B0C04D03B681B681B0C1B0404D0B74B3E
:10058000C221180003F057FB3B685B68002B36D094
:100590003B685B68012B32D03B685B68112B2ED027
:1005A0003B685B68022B2AD03B685B68122B26D025
:1005B0003B685B68AA4A934221D03B685B68A94AC2
:1005C00093421CD03B685B68A74A934217D03B68B4
:1005D0005B68A64A934212D03B685B68A44A934288
:1005E0000DD03B685B68A34A934208D03B685B68C8
:1005F000032B04D0994BC321180003F01CFB3B686C
:100600009B68002B00D1A2E13B689B68012B00D1C5
:100610009DE13B689B68022B00D198E18F4BC42180
:10062000180003F008FB92E13B681B6801217A691E
:1006300091400A001340FB60FB68002B00D183E16E
:100640003B685B68022B03D03B685B68122B3AD196
:100650007A689023DB059A4208D07B687B4A9342F4
:1006600004D07E4BD321180003F0E5FA3B681B69E8
:10067000062B04D9794BD421180003F0DCFA7B69EE
:10068000DA087B6808329200D3583B617B69072205
:1006900013409B000F229A401300DA433B6913403A
:1006A0003B613B681A697B6907210B409B009A40BC
:1006B00013003A6913433B617B69DA087B680832AF
:1006C00092003969D1507B681B683B617B695B0094
:1006D00003229A401300DA433B6913403B613B68B5
:1006E0005B6803221A407B695B009A4013003A69F9
:1006F00013433B617B683A691A603B685B68012B76
:100700000BD03B685B68022B07D03B685B68112B02
:1007100003D03B685B68122B41D13B68DB68002B40
:100720000CD03B68DB68012B08D03B68DB68032BEF
:1007300004D04A4BE821180003F07DFA7B689B68DF
:100740003B617B695B0003229A401300DA433B69FB
:1007500013403B613B68DA687B695B009A40130099
:100760003A6913433B617B683A699A607B685B68CE
:100770003B6101227B699A401300DA433B691340D5
:100780003B613B685B681B0901221A407B699A4008
:1007900013003A6913433B617B683A695A607B688E
:1007A000DB683B617B695B0003229A401300DA43FC
:1007B0003B6913403B613B689A687B695B009A40E8
:1007C00013003A6913433B617B683A69DA603B681E
:1007D0005A6880235B05134000D1B5E0264B9A6927
:1007E000254B01210A439A61234B9B690122134047
:1007F000BB60BB68214A7B699B0802339B009B5806
:100800003B617B69032213409B000F229A40130037
:10081000DA433B6913403B617A689023DB059A42D7
:100820002ED07B68094A93420DD07B68084A9342D8
:1008300007D07B68074A934201D1032321E00523B7
:100840001FE002231DE001231BE0C0460004004816
:1008500000080048000C004800140048C841000887
:1008600000001110000021100000311000001210D3
:100870000000221000003210001002400000014071
:1008800000237A6903210A40920093403A69134396
:100890003B6134497B699B0802339B003A695A509B
:1008A000314B1B683B61FB68DA433B6913403B619A
:1008B0003B685A6880235B02134003D03A69FB68A7
:1008C00013433B61284B3A691A60274B5B683B61D5
:1008D000FB68DA433B6913403B613B685A688023FD
:1008E0009B02134003D03A69FB6813433B611E4BE4
:1008F0003A695A601C4B9B683B61FB68DA433B6971
:1009000013403B613B685A6880235B03134003D06C
:100910003A69FB6813433B61134B3A699A60124B87
:10092000DB683B61FB68DA433B6913403B613B6832
:100930005A6880239B03134003D03A69FB68134332
:100940003B61094B3A69DA607B6901337B613B6843
:100950001A687B69DA40131E00D065E6C046BD46C2
:1009600006B080BD000001400004014080B584B0A5
:1009700000AF78600A00BB1C1A80BB1C1B88002BD0
:1009800004D0BB1C1B881B0C1B0406D0C7235A00B9
:100990000D4B1100180003F04EF97B681B69BA1C5F
:1009A0001288134004D00F23FB1801221A7003E0B1
:1009B0000F23FB1800221A700F23FB181B78180056
:1009C000BD4604B080BDC046C841000880B582B0B5
:1009D00000AF786008001100BB1C021C1A807B1C51
:1009E0000A1C1A70BB1C1B88002B04D0BB1C1B8864
:1009F0001B0C1B0407D0AE23FF331A00124B11004F
:100A0000180003F018F97B1C1B78002B0AD07B1C04
:100A10001B78012B06D0D7235A000B4B110018006E
:100A200003F009F97B1C1B78002B04D0BB1C1A882F
:100A30007B689A6103E0BB1C1A887B689A62C04697
:100A4000BD4602B080BDC046C841000880B582B036
:100A500000AF78600A00BB1C1A80BB1C1B88002BEF
:100A600004D0BB1C1B881B0C1B0407D0C423FF3302
:100A70001A00084B1100180003F0DDF87B685A6972
:100A8000BB1C1B885A407B685A61C046BD4602B0F9
:100A900080BDC046C841000880B586B000AF786010
:100AA00000233B617B68002B06D189235A00C64B8B
:100AB0001100180003F0BFF87B681B68002B20D0E2
:100AC0007B681B68012213401BD17B681B680222D4
:100AD000134016D17B681B680822134011D17B6834
:100AE0001B68042213400CD17B681B681022134042
:100AF00007D11423FF331A00B34B1100180003F081
:100B00009AF87B681B680122134000D1A4E07B683F
:100B10005B68002B0FD07B685B68012B0BD07B6878
:100B20005B68052B07D01A23FF331A00A64B110070
:100B3000180003F080F8A54B5B680C221340042BCF
:100B40000ED0A24B5B680C221340082B17D19F4B91
:100B50005A6880235B021A4080235B029A420ED1BE
:100B60009A4B1A6880239B02134000D173E07B6884
:100B70005B68002B00D06EE0012300F0E9FB7B688E
:100B80005B68012B07D1914B1A68904B8021490279
:100B90000A431A602FE07B685B68002B0CD18B4BFB
:100BA0001A688A4B8A490A401A60884B1A68874B30
:100BB00088490A401A601EE07B685B68052B0ED1ED
:100BC000824B1A68814B8021C9020A431A607F4B0D
:100BD0001A687E4B802149020A431A600BE07B4B66
:100BE0001A687A4B7A490A401A60784B1A68774B30
:100BF00078490A401A607B685B68002B15D0FFF7C4
:100C000075FB03003B6109E0FFF770FB02003B69E5
:100C1000D31A642B02D9032300F09AFB6B4B1A689A
:100C200080239B021340EFD016E0FFF75FFB030029
:100C30003B6109E0FFF75AFB02003B69D31A642BC2
:100C400002D9032300F084FB604B1A6880239B02C7
:100C50001340EFD100E0C0467B681B6802221340BE
:100C600000D185E07B68DB68002B0BD07B68DB68FC
:100C7000012B07D04E23FF331A00534B11001800ED
:100C800002F0D9FF7B681B691F2B06D9A7235A00E6
:100C90004D4B1100180002F0CEFF4C4B5B680C224C
:100CA00013400BD0494B5B680C221340082B1DD11D
:100CB000464B5A6880235B02134017D1434B1B6895
:100CC0000222134006D07B68DB68012B02D001238F
:100CD00000F03EFB3D4B1B68F822934319007B68F4
:100CE0001B69DA00394B0A431A6041E07B68DB6814
:100CF000002B24D0354B1A68344B01210A431A606B
:100D0000FFF7F4FA03003B6108E0FFF7EFFA020097
:100D10003B69D31A022B01D9032319E32B4B1B6820
:100D200002221340F1D0294B1B68F822934319008B
:100D30007B681B69DA00254B0A431A6018E0234BD5
:100D40001A68224B01218A431A60FFF7CFFA030089
:100D50003B6108E0FFF7CAFA02003B69D31A022B95
:100D600001D90323F4E2194B1B6802221340F1D18D
:100D70007B681B68082213404DD07B68DB69002B21
:100D80000AD07B68DB69012B06D0C7235A000E4BC3
:100D90001100180002F04FFF7B68DB69002B21D0A7
:100DA0000A4B5A6A094B01210A435A62FFF79EFA1D
:100DB00003003B6110E0FFF799FA02003B69D31A88
:100DC000022B09D90323C3E20442000800100240A9
:100DD000FFFFFEFFFFFFFBFFB34B5B6A02221340E6
:100DE000E9D018E0B04B5A6AAF4B01218A435A62EE
:100DF000FFF77CFA03003B6108E0FFF777FA020097
:100E00003B69D31A022B01D90323A1E2A64B5B6AEB
:100E100002221340F1D17B681B680422134000D1E9
:100E2000C0E01723FB1800221A707B689B68002B18
:100E30000ED07B689B68012B0AD07B689B68052BD2
:100E400006D0DD235A00994B1100180002F0F3FE82
:100E5000954BDA6980235B05134011D1924BDA6917
:100E6000914B802149050A43DA618F4BDA6980236F
:100E70005B051340FB60FB681723FB1801221A7007
:100E80008B4B1A6880235B0013401AD1884B1A6879
:100E9000874B802149000A431A60FFF727FA0300B5
:100EA0003B6108E0FFF722FA02003B69D31A642B8A
:100EB00001D903234CE27E4B1A6880235B00134068
:100EC000F0D07B689B68012B06D1774B1A6A764B72
:100ED00001210A431A622DE07B689B68002B0CD12C
:100EE000714B1A6A704B01218A431A626E4B1A6A5F
:100EF0006D4B04218A431A621CE07B689B68052BBA
:100F00000CD1694B1A6A684B04210A431A62664B7A
:100F10001A6A654B01210A431A620BE0624B1A6A96
:100F2000614B01218A431A625F4B1A6A5E4B0421AE
:100F30008A431A627B689B68002B14D0FFF7D6F9AE
:100F400003003B6109E0FFF7D1F902003B69D31AC6
:100F5000584A934201D90323FAE1534B1B6A0222F8
:100F60001340F0D013E0FFF7C1F903003B6109E043
:100F7000FFF7BCF902003B69D31A4E4A934201D9EC
:100F80000323E5E1484B1B6A02221340F0D11723EB
:100F9000FB181B78012B05D1434BDA69424B4649BC
:100FA0000A40DA617B681B681022134000D18CE094
:100FB0007B685B69002B0ED07B685B69012B0AD0D4
:100FC0007B685B69053306D080239A00374B11009C
:100FD000180002F030FE7B689B691F2B05D9374A49
:100FE000324B1100180002F026FE7B685B69012B72
:100FF0002AD12D4B5A6B2C4B04210A435A632A4B9E
:101000005A6B294B01210A435A63FFF76FF903001A
:101010003B6108E0FFF76AF902003B69D31A022B33
:1010200001D9032394E1204B5B6B02221340F1D0E2
:101030001D4B5B6BF822934319007B689B69DA00B8
:10104000194B0A435A6340E07B685B69053311D151
:10105000154B5A6B144B04218A435A63124B5B6B3A
:10106000F822934319007B689B69DA000E4B0A4310
:101070005A632AE00C4B5A6B0B4B04210A435A6308
:10108000094B5A6B084B01218A435A63FFF72EF92B
:1010900003003B6114E0FFF729F902003B69D31A12
:1010A000022B0DD9032353E1001002400442000833
:1010B0000070004088130000FFFFFFEF01020000F6
:1010C000A54B5B6B02221340E5D17B681B6A002BAA
:1010D0000ED07B681B6A012B0AD07B681B6A022B2F
:1010E00006D09D239A009D4B1100180002F0A3FD2D
:1010F0007B681B6A002B00D129E1974B5B680C22AF
:101100001340082B00D120E17B681B6A022B00D022
:1011100000E17B685B6A002B0BD07B685A6A8023F6
:101120005B029A4205D08E4A8C4B1100180002F0E7
:1011300082FD7B689B6A002B59D07B689A6A80236A
:10114000DB029A4253D07B689A6A80231B039A423F
:101150004DD07B689A6AC0231B039A4247D07B68B4
:101160009A6A80235B039A4241D07B689A6AA023E3
:101170005B039A423BD07B689A6AC0235B039A4226
:1011800035D07B689A6AE0235B039A422FD07B6854
:101190009A6A80239B039A4229D07B689A6A90239B
:1011A0009B039A4223D07B689A6AA0239B039A42AE
:1011B0001DD07B689A6AB0239B039A4217D07B6844
:1011C0009A6AC0239B039A4211D07B689A6AD02303
:1011D0009B039A420BD07B689A6AE0239B039A4256
:1011E00005D0604A5D4B1100180002F024FD7B68B9
:1011F000DB6A002B41D07B68DB6A012B3DD07B682A
:10120000DB6A022B39D07B68DB6A032B35D07B6825
:10121000DB6A042B31D07B68DB6A052B2DD07B6821
:10122000DB6A062B29D07B68DB6A072B25D07B681D
:10123000DB6A082B21D07B68DB6A092B1DD07B6819
:10124000DB6A0A2B19D07B68DB6A0B2B15D07B6815
:10125000DB6A0C2B11D07B68DB6A0D2B0DD07B6811
:10126000DB6A0E2B09D07B68DB6A0F2B05D03E4A68
:101270003A4B1100180002F0DEFC374B1A68364B6F
:101280003A490A401A60FFF731F803003B6108E071
:10129000FFF72CF802003B69D31A022B01D9032374
:1012A00056E02D4B1A6880239B041340F0D12A4B43
:1012B000DB6A0F22934319007B68DA6A264B0A43E4
:1012C000DA62254B5B682A4A134019007B689A6AE8
:1012D0007B685B6A1A43204B0A435A601E4B1A68AC
:1012E0001D4B802149040A431A60FEF7FFFF0300EB
:1012F0003B6108E0FEF7FAFF02003B69D31A022BBC
:1013000001D9032324E0144B1A6880239B04134063
:10131000F0D01CE0104B1A680F4B14490A401A60B9
:10132000FEF7E4FF03003B6108E0FEF7DFFF020089
:101330003B69D31A022B01D9032309E0064B1A6833
:1013400080239B041340F0D101E0012300E000233F
:101350001800BD4606B080BD0010024004420008DF
:101360007D0200007E0200007F020000FFFFFFFE02
:10137000FFFFC2FF80B584B000AF78603960002302
:10138000FB607B68002B05D1AC4AAD4B1100180007
:1013900002F051FC7B681B68012213400FD17B686F
:1013A0001B68022213400AD17B681B680422134089
:1013B00005D1A44AA24B1100180002F03CFC3B6886
:1013C000002B09D03B68012B06D0B7239A009C4B19
:1013D0001100180002F02FFC9B4B1B6801221340E8
:1013E0003A689A4211D9984B1B680122934319001D
:1013F000954B3A680A431A60934B1B6801221340CD
:101400003A689A4201D0012314E17B681B680222EA
:10141000134033D07B689B68002B25D07B689B688A
:10142000802B21D07B689B68902B1DD07B689B68AC
:10143000A02B19D07B689B68B02B15D07B689B686C
:10144000C02B11D07B689B68D02B0DD07B689B682C
:10145000E02B09D07B689B68F02B05D07B4A784B4A
:101460001100180002F0E7FB794B5B68F022934310
:1014700019007B689A68764B0A435A607B681B6840
:101480000122134000D179E07B685B68002B0DD00E
:101490007B685B68012B09D07B685B68022B05D0F9
:1014A0006C4A674B1100180002F0C5FB7B685B6853
:1014B000012B07D1664B1A6880239B02134014D17D
:1014C0000123B7E07B685B68022B07D1604B1A6889
:1014D00080239B04134008D10123ABE05C4B1B68C5
:1014E0000222134001D10123A4E0594B5B6803227F
:1014F000934319007B685A68554B0A435A60FEF7BC
:10150000F5FE0300FB607B685B68012B11D109E0ED
:10151000FEF7ECFE0200FB68D31A4F4A934201D952
:10152000032387E04A4B5B680C221340042BEFD166
:1015300024E07B685B68022B1BD109E0FEF7D6FE36
:101540000200FB68D31A444A934201D9032371E095
:101550003F4B5B680C221340082BEFD10EE0FEF7E7
:10156000C5FE0200FB68D31A3B4A934201D903230C
:1015700060E0374B5B680C221340F0D1324B1B68A4
:10158000012213403A689A4211D22F4B1B68012264
:10159000934319002C4B3A680A431A602A4B1B6884
:1015A000012213403A689A4201D0012342E07B684D
:1015B0001B68042213402BD07B68DB68002B1DD0F6
:1015C0007B68DA688023DB009A4217D07B68DA6890
:1015D000A023DB009A4211D07B68DA68C023DB00CD
:1015E0009A420BD07B68DA68E023DB009A4205D090
:1015F0001A4A134B1100180002F01DFB144B5B68D4
:10160000174A134019007B68DA68114B0A435A6085
:1016100000F02CF801000E4B5B681B090F221340F1
:10162000104AD35C0A00DA400F4B1A600020FEF724
:1016300035FE00231800BD4604B080BDDA0200006C
:1016400004420008DB02000000200240F302000018
:1016500000100240FA02000088130000630300003B
:10166000FFF8FFFFE04200080000002090B58FB0B7
:1016700000AF1423FB182B4A13CA13C312681A6055
:101680003B1D294A13CA13C312681A600023FB6268
:101690000023BB6200237B6300237B6200233B6348
:1016A000224B5B68FB62FB6A0C221340042B02D0C6
:1016B000082B03D02DE01E4B3B632DE0FB6A9B0CF7
:1016C0000F2213401422BA18D35C7B62174BDB6ADB
:1016D0000F2213403A1DD35CBB62FA6A80235B027F
:1016E000134009D0B96A1248FEF70EFD03001A0034
:1016F0007B6A53437B6309E0796A0A005201521AFC
:1017000093019B1ADB005B181B027B637B6B3B63C3
:1017100002E0074B3B63C0463B6B1800BD460FB071
:1017200090BDC0463C4200084C42000800100240F8
:1017300000127A0080B500AF024B1B681800BD464E
:1017400080BDC0460000002080B584B000AF786046
:101750007B68002B01D10123B1E17B681B68B24A91
:1017600093420BD07B681B68B04A934206D0922309
:101770005A00AF4B1100180002F05DFA7B685B68FD
:10178000002B0DD07B685A6882235B009A4207D0F9
:101790002623FF331A00A64B1100180002F04BFA63
:1017A0007B689B68002B12D07B689A688023DB00E3
:1017B0009A420CD07B689A6880231B029A4206D01A
:1017C00093235A009A4B1100180002F034FA7B68F8
:1017D000DA68F0231B019A424FD07B68DA68E02375
:1017E0001B019A4249D07B68DA68D0231B019A42D8
:1017F00043D07B68DA68C0231B019A423DD07B68E6
:10180000DA68B0231B019A4237D07B68DA68A023DC
:101810001B019A4231D07B68DA6890231B019A42FF
:101820002BD07B68DA6880231B019A4225D07B6825
:10183000DA68E023DB009A421FD07B68DA68C023B5
:10184000DB009A4219D07B68DA68A023DB009A4259
:1018500013D07B68DA688023DB009A420DD07B6866
:10186000DA68C0239B009A4207D02823FF331A006E
:101870006F4B1100180002F0DEF97B689A69802333
:101880009B009A4210D07B689B69002B0CD07B6830
:101890009A698023DB029A4206D094235A00644B53
:1018A0001100180002F0C7F97B685B6B082B0BD0A6
:1018B0007B685B6B002B07D02A23FF331A005C4B3D
:1018C0001100180002F0B7F97B68DB69002B22D009
:1018D0007B68DB69082B1ED07B68DB69102B1AD074
:1018E0007B68DB69182B16D07B68DB69202B12D054
:1018F0007B68DB69282B0ED07B68DB69302B0AD034
:101900007B68DB69382B06D095235A00484B1100C1
:10191000180002F090F97B681B6A002B0BD07B68E3
:101920001B6A802B07D02C23FF331A00404B110079
:10193000180002F080F97B685B6A002B0AD07B6894
:101940005B6A102B06D096235A00394B1100180001
:1019500002F071F97B685B6A002B1ED17B681B6902
:10196000002B0BD07B681B69022B07D03023FF3381
:101970001A002F4B1100180002F05DF97B685B69BB
:10198000002B0AD07B685B69012B06D098235A0094
:10199000274B1100180002F04EF97B6800229A6272
:1019A0007B685D229B5CDBB2002B07D17B685C22ED
:1019B000002199547B68180002F084F97B685D224D
:1019C000022199547B681B681A687B681B68402158
:1019D0008A431A607B68DA68E023DB009A4202D906
:1019E0000023FB6002E080235B01FB607B68DA6818
:1019F000F0231B019A4208D07B68DA68E023DB0001
:101A00009A4202D07B6800229A627B681B6B002B93
:101A100013D17B68DA68E023DB009A420AD97B683D
:101A200002221A6309E0C04600300140003800403D
:101A30005C4200087B6801221A637B685A687B68F5
:101A40009B681A437B681B691A437B685B691A436E
:101A50007B68996980239B000B401A437B68DB6994
:101A60001A437B681B6A1A4311007B689A6A7B6879
:101A70001B680A431A607B689B691B0C04221A408E
:101A80007B685B6A1A437B685B6B1A437B68DB6825
:101A90001A4311007B681B68FA680A435A607B6826
:101AA0001B68DA697B681B6807490A40DA617B6852
:101AB00000221A667B685D220121995400231800D8
:101AC000BD4604B080BDC046FFF7FFFF80B588B0BB
:101AD00000AFF860B9603B60BB1D1A800023BB619A
:101AE0001F23FB1800221A70FB68DA68E023DB0072
:101AF0009A4203D8BB1D1B88012B09D9BB68012260
:101B0000134005D0B84AB94B1100180002F093F801
:101B1000FB689B68002B0BD0FB689A6880231B0234
:101B20009A4205D0B24AB14B1100180002F083F876
:101B3000FB685C229B5C012B01D102234FE1FB6817
:101B40005C2201219954FEF7D1FB0300BB61FB68C5
:101B50005D229B5CDBB2012B04D01F23FB18022209
:101B60001A7031E1BB68002B03D0BB1D1B88002B12
:101B700004D11F23FB1801221A7025E1FB685D22A6
:101B800003219954FB6800221A66FB68BA689A63BD
:101B9000FB68BA1D12889A87FB68BA1D1288DA871B
:101BA000FB6800221A64FB68442200219952FB68FA
:101BB000462200219952FB6800221A65FB68002228
:101BC000DA64FB689A6880231B029A4208D1FB689A
:101BD0001B681A68FB681B688021C9010A431A60E8
:101BE000FB681B681B6840221340402B07D0FB6832
:101BF0001B681A68FB681B6840210A431A60FB686F
:101C0000DA68E023DB009A4248D9FB685B68002B66
:101C100004D0FB68DB8F9BB2012B39D1BB681A88DB
:101C2000FB681B68DA60BB680233BB60FB68DB8F54
:101C30009BB2013B9AB2FB68DA8729E0FB681B681C
:101C40009B6802221340022B0FD1BB681A88FB68E5
:101C50001B68DA60BB680233BB60FB68DB8F9BB23A
:101C6000013B9AB2FB68DA8712E03B68002B0AD08E
:101C70003B6801330CD0FEF739FB0200BB69D31A75
:101C80003A689A4204D81F23FB1803221A709BE07B
:101C9000FB68DB8F9BB2002BD0D171E0FB685B68E7
:101CA000002B04D0FB68DB8F9BB2012B63D1FB6858
:101CB000DB8F9BB2012B0FD9BB681A88FB681B68AE
:101CC000DA60BB680233BB60FB68DB8F9BB2023B10
:101CD0009AB2FB68DA874EE0BB685A1CBA60FA68B1
:101CE00012680C321B781370FB68DB8F9BB2013BD0
:101CF0009AB2FB68DA873EE0FB681B689B680222A9
:101D00001340022B24D1FB68DB8F9BB2012B0FD930
:101D1000BB681A88FB681B68DA60BB680233BB606B
:101D2000FB68DB8F9BB2023B9AB2FB68DA8722E04A
:101D3000BB685A1CBA60FA6812680C321B781370C0
:101D4000FB68DB8F9BB2013B9AB2FB68DA8712E03B
:101D50003B68002B0AD03B6801330CD0FEF7C6FA73
:101D60000200BB69D31A3A689A4204D81F23FB18B1
:101D700003221A7028E0FB68DB8F9BB2002BBBD1DB
:101D8000BA693968FB68180000F014FD031E02D020
:101D9000FB6820221A66FB689B68002B0AD100238F
:101DA0007B61FB681B68DB687B61FB681B689B6869
:101DB0007B617B69FB681B6E002B04D01F23FB1823
:101DC00001221A7000E0C046FB685D22012199548F
:101DD000FB685C22002199541F23FB181B78180014
:101DE000BD4608B080BDC046090200005C42000844
:101DF0000D02000090B589B002AFF860B9603B6099
:101E0000BB1D1A8000233B611723FB1800221A70A8
:101E1000FB68DA68E023DB009A4203D8BB1D1B880D
:101E2000012B09D9BB680122134005D0984A994B70
:101E30001100180001F0FFFEFB685A6882235B0066
:101E40009A4213D1FB689B68002B0FD1FB685D227F
:101E500004219954BB1D1C88BA68B968F8683B68AE
:101E60000093230000F01CF903000CE1FB685C22E6
:101E70009B5C012B01D1022305E1FB685C2201215F
:101E80009954FEF733FA03003B61FB685D229B5CCB
:101E9000DBB2012B04D01723FB1802221A70E7E0F3
:101EA000BB68002B03D0BB1D1B88002B04D117235C
:101EB000FB1801221A70DBE0FB685D2204219954B3
:101EC000FB6800221A66FB68BA681A64FB68BA1DD0
:101ED000442112885A52FB68BA1D462112885A5270
:101EE000FB6800229A63FB6800229A87FB68002245
:101EF000DA87FB680022DA64FB6800221A65FB6857
:101F0000DA68E023DB009A4208D9FB681B685A684C
:101F1000FB681B6860490A405A6008E0FB681B6860
:101F20005A68FB681B68802149010A435A60FB68B4
:101F30009A6880231B029A4207D1FB681B681A68C3
:101F4000FB681B6855490A401A60FB681B681B68E0
:101F500040221340402B07D0FB681B681A68FB68BF
:101F60001B6840210A431A60FB68DA68E023DB0043
:101F70009A4262D82DE0FB681B689B6801221340DF
:101F8000012B13D1FB681B680C331B78DAB2BB68DA
:101F90001A70BB680133BB60FB6846229B5A9BB238
:101FA000013B99B2FB684622995212E03B68002B34
:101FB0000AD03B6801330CD0FEF798F902003B6968
:101FC000D31A3A689A4204D81723FB1803221A70CE
:101FD0004EE0FB6846229B5A9BB2002BCBD132E0ED
:101FE000FB681B689B6801221340012B12D1FB6820
:101FF0001B68DB689AB2BB681A80BB680233BB609F
:10200000FB6846229B5A9BB2013B99B2FB68462271
:10201000995212E03B68002B0AD03B6801330CD088
:10202000FEF764F902003B69D31A3A689A4204D871
:102030001723FB1803221A701AE0FB6846229B5AEA
:102040009BB2002BCCD13A693968FB68180000F0CC
:1020500053FB031E02D0FB6820221A66FB681B6E2E
:10206000002B04D01723FB1801221A7000E0C04691
:10207000FB685D2201219954FB685C220021995480
:102080001723FB181B781800BD4607B090BDC0464B
:10209000C60200005C420008FFEFFFFFFFBFFFFF2A
:1020A00080B58AB000AFF860B9607A601A00BB1CD6
:1020B0001A800023FB610023BB6100237B610123A5
:1020C0007B622323FB1800221A70FB68DA68E02386
:1020D000DB009A4203D8BB1C1B88012B14D9BB68B8
:1020E0000122134006D0EE239A00BD4B11001800C8
:1020F00001F0A1FD7B680122134005D0B94AB84B1D
:102100001100180001F097FDFB689B68002B05D0BB
:10211000B54AB34B1100180001F08DFDFB685C223D
:102120009B5C012B01D10223FAE1FB685C220121B7
:102130009954FEF7DBF803007B61FB685D229B5C32
:10214000DBB2FB61FB685B68BB61FB69012B10D0F4
:10215000BA6982235B009A4206D1FB689B68002B18
:1021600002D1FB69042B04D02323FB1802221A702E
:10217000CBE1BB68002B06D07B68002B03D0BB1CD7
:102180001B88002B04D12323FB1801221A70BCE109
:10219000FB685D229B5CDBB2042B03D0FB685D22F5
:1021A00005219954FB6800221A66FB687A681A6454
:1021B000FB68BA1C462112885A52FB68BA1C44219B
:1021C00012885A52FB68BA689A63FB68BA1C128874
:1021D000DA87FB68BA1C12889A87FB680022DA64E7
:1021E000FB6800221A65FB68DA68E023DB009A428C
:1021F00005D8FB6846229B5A9BB2012B08D9FB6885
:102200001B685A68FB681B6878490A405A6008E0F6
:10221000FB681B685A68FB681B68802149010A43F8
:102220005A60FB681B681B6840221340402B07D094
:10223000FB681B681A68FB681B6840210A431A6028
:10224000FB68DA68E023DB009A4200D875E0FB689F
:102250005B68002B04D0FB68DB8F9BB2012B60D145
:10226000BB681A88FB681B68DA60BB680233BB6016
:10227000FB68DB8F9BB2013B9AB2FB68DA8750E0C8
:102280007B6A002B1CD0FB68DB8F9BB2002B17D026
:10229000FB681B689B6802221340022B10D1BB68AD
:1022A0001A88FB681B68DA60BB680233BB60FB6896
:1022B000DB8F9BB2013B9AB2FB68DA8700237B621B
:1022C000FB6846229B5A9BB2002B1AD0FB681B6806
:1022D0009B6801221340012B13D1FB681B68DB684C
:1022E0009AB27B681A807B6802337B60FB68462267
:1022F0009B5A9BB2013B99B2FB684622995201233B
:102300007B623B6B01330CD0FDF7F0FF02007B6971
:10231000D31A3A6B9A4204D82323FB1803221A706B
:10232000F3E0FB68DB8F9BB2002BA9D1FB68462250
:102330009B5A9BB2002BA3D1D2E0FB685B68002BB9
:1023400005D0FB68DB8F9BB2012B00D0BBE0FB68A4
:10235000DB8F9BB2012B0FD9BB681A88FB681B6807
:10236000DA60BB680233BB60FB68DB8F9BB2023B69
:102370009AB2FB68DA87A6E0BB685A1CBA60FA68B2
:1023800012680C321B781370FB68DB8F9BB2013B29
:102390009AB2FB68DA8796E07B6A002B39D0FB683B
:1023A000DB8F9BB2002B34D0FB681B689B6802223A
:1023B0001340022B2DD1FB68DB8F9BB2012B17D969
:1023C000BB681A88FB681B68DA60BB680233BB60B5
:1023D000FB68DB8F9BB2023B9AB2FB68DA8716E0A0
:1023E0005C420008B9030000BD030000FFEFFFFFDF
:1023F000BB685A1CBA60FA6812680C321B781370FA
:10240000FB68DB8F9BB2013B9AB2FB68DA87002343
:102410007B62FB6846229B5A9BB2002B43D0FB6831
:102420001B689B6801221340012B3CD1FB684622AC
:102430009B5A9BB2012B21D9FB681B68DB689AB2BF
:102440007B681A807B6802337B60FB6846229B5A5C
:102450009BB2023B99B2FB6846229952FB68462226
:102460009B5A9BB2012B1CD8FB681B685A68FB68FF
:102470001B68802149010A435A6012E0FB681B680F
:102480000C331A007B68591C79601278D2B21A702A
:10249000FB6846229B5A9BB2013B99B2FB684622DD
:1024A000995201237B623B6B01330CD0FDF71EFF79
:1024B00002007B69D31A3A6B9A4204D82323FB1893
:1024C00003221A7021E0FB68DB8F9BB2002B00D047
:1024D00062E7FB6846229B5A9BB2002B00D05BE769
:1024E0007A69396BFB68180000F064F9031E02D0AA
:1024F000FB6820221A66FB681B6E002B04D0232386
:10250000FB1801221A7000E0C046FB685D22012121
:102510009954FB685C22002199542323FB181B78F3
:102520001800BD460AB080BD80B584B000AFF86029
:10253000B9607A603B6050E03B6801334DD03B6846
:10254000002B07D0FDF7D2FE0200BB69D31A3A6810
:102550009A4242D8FB681B685A68FB681B68E021F6
:102560008A435A60FB685A6882235B009A4213D1FF
:10257000FB689A6880231B029A4205D0FB689A6820
:102580008023DB009A4207D1FB681B681A68FB684E
:102590001B6840218A431A60FB689A6A80239B016A
:1025A0009A4210D1FB681B681A68FB681B681449C3
:1025B0000A401A60FB681B681A68FB681B68802168
:1025C00089010A431A60FB685D2201219954FB6866
:1025D0005C220021995403230EE0FB681B689B6872
:1025E000BA681340BA689A4201D1012300E000237F
:1025F0007A689342A0D100231800BD4604B080BD84
:10260000FFDFFFFF80B586B000AFF860B9607A6089
:102610003B6062E0BA68C023DB009A420CD17B6861
:10262000002B09D1FB681B680C331B78DAB2172129
:102630007B181A707B181B783B6801334DD03B68C0
:10264000002B07D0FDF752FE02003B6AD31A3A680E
:102650009A4242D8FB681B685A68FB681B68E021F5
:102660008A435A60FB685A6882235B009A4213D1FE
:10267000FB689A6880231B029A4205D0FB689A681F
:102680008023DB009A4207D1FB681B681A68FB684D
:102690001B6840218A431A60FB689A6A80239B0169
:1026A0009A4210D1FB681B681A68FB681B681149C5
:1026B0000A401A60FB681B681A68FB681B68802167
:1026C00089010A431A60FB685D2201219954FB6865
:1026D0005C2200219954032308E0FB681B689B6877
:1026E000BA6813407A689A4294D100231800BD4614
:1026F00006B080BDFFDFFFFF80B586B002AFF86097
:10270000B9607A60FB685A6882235B009A4213D1F1
:10271000FB689A6880231B029A4205D0FB689A687E
:102720008023DB009A4207D1FB681B681A68FB68AC
:102730001B6840218A431A60BA68F8687B68009376
:10274000130000228021FFF7EFFE031E07D0FB6875
:102750001B6E20221A43FB681A66032326E0FB68DF
:102760005A6882235B009A421FD1FB689A688023D3
:102770001B029A4205D0FB689A688023DB009A42CC
:1027800013D1BA68C023D900F8687B68009313009E
:102790000022FFF737FF031E07D0FB681B6E2022C5
:1027A0001A43FB681A66032300E000231800BD46A5
:1027B00004B080BD80B586B002AFF860B9607A60C1
:1027C000BA68C0235901F8687B680093130000229F
:1027D000FFF718FF031E07D0FB681B6E20221A4369
:1027E000FB681A66032327E0BA68F8687B680093E1
:1027F000130000228021FFF797FE031E07D0FB681D
:102800001B6E20221A43FB681A66032314E0BA6881
:10281000C023D900F8687B68009313000022FFF7FB
:10282000F1FE031E07D0FB681B6E20221A43FB68D3
:102830001A66032300E000231800BD4604B080BDE3
:1028400080B582B000AF78607B68002B01D1012396
:1028500081E07B681B68424A934222D07B681B68F8
:10286000404A93421DD07B681B683F4A934218D070
:102870007B681B683D4A934213D07B681B683C4AC7
:1028800093420ED07B681B683A4A934209D07B681A
:102890001B68394A934204D0384BD421180001F008
:1028A000CAF97B689B68002B14D07B689B68102B4F
:1028B00010D07B689B68202B0CD07B689B68402BDA
:1028C00008D07B689B68602B04D02C4BD521180066
:1028D00001F0B1F97B681B69002B10D07B681A6985
:1028E00080235B009A420AD07B681A6980239B0090
:1028F0009A4204D0214BD621180001F09CF97B6844
:102900009B69002B08D07B689B69802B04D01B4BF4
:10291000D721180001F08FF97B683D229B5CDBB268
:10292000002B07D17B683C22002199547B6818005A
:1029300001F0F0FA7B683D22022199547B681A6805
:102940007B6804331900100000F0A4F97B683D2275
:102950000121995400231800BD4602B080BDC04635
:10296000002C014000040040001000400020004006
:1029700000400140004401400048014094420008EA
:1029800080B582B000AF78607B681B681E4A9342B6
:1029900024D07B681B681D4A93421FD07B681B684C
:1029A0001B4A93421AD07B681B681A4A934215D07F
:1029B0007B681B68184A934210D07B681B68174AD3
:1029C00093420BD07B681B68154A934206D0AF2315
:1029D0005A00144B1100180001F02DF97B681B6898
:1029E000DA687B681B6801210A43DA607B681B6830
:1029F0001A687B681B6801210A431A6000231800CB
:102A0000BD4602B080BDC046002C0140000400401D
:102A10000010004000200040004001400044014000
:102A2000004801409442000880B582B000AF786051
:102A30007B681B681B6902221340022B24D17B6830
:102A40001B68DB6802221340022B1DD17B681B68C8
:102A5000032252421A617B6801221A777B681B6845
:102A60009B690322134004D07B68180000F0FAF839
:102A700007E07B68180000F0EDF87B68180000F0B4
:102A8000F9F87B6800221A777B681B681B690422AF
:102A90001340042B25D17B681B68DB68042213409C
:102AA000042B1ED17B681B68052252421A617B6889
:102AB00002221A777B681B689A69C0239B00134027
:102AC00004D07B68180000F0CDF807E07B681800A0
:102AD00000F0C0F87B68180000F0CCF87B6800229A
:102AE0001A777B681B681B6908221340082B24D1C6
:102AF0007B681B68DB6808221340082B1DD17B68AC
:102B00001B68092252421A617B6804221A777B688B
:102B10001B68DB690322134004D07B68180000F0B7
:102B2000A1F807E07B68180000F094F87B681800B3
:102B300000F0A0F87B6800221A777B681B681B698D
:102B400010221340102B25D17B681B68DB681022F4
:102B50001340102B1ED17B681B68112252421A6150
:102B60007B6808221A777B681B68DA69C0239B00A0
:102B7000134004D07B68180000F074F807E07B680D
:102B8000180000F067F87B68180000F073F87B68A5
:102B900000221A777B681B681B6901221340012BF6
:102BA0000FD17B681B68DB6801221340012B08D121
:102BB0007B681B68022252421A617B68180000F091
:102BC000D7FF7B681B681B6980221340802B0FD1C5
:102BD0007B681B68DB6880221340802B08D17B68F0
:102BE0001B68812252421A617B68180000F0D2F8FB
:102BF0007B681B681B6940221340402B0FD17B6808
:102C00001B68DB6840221340402B08D17B681B689F
:102C1000412252421A617B68180000F033F87B6849
:102C20001B681B6920221340202B0FD17B681B6877
:102C3000DB6820221340202B08D17B681B682122EF
:102C400052421A617B68180000F09CF8C046BD46ED
:102C500002B080BD80B582B000AF7860C046BD468E
:102C600002B080BD80B582B000AF7860C046BD467E
:102C700002B080BD80B582B000AF7860C046BD466E
:102C800002B080BD80B582B000AF7860C046BD465E
:102C900002B080BD80B584B000AF78603960002399
:102CA000FB607B681B68FB607B682F4A934203D004
:102CB0007B682E4A934208D1FB6870229343FB60E5
:102CC0003B685B68FA681343FB607B68264A934263
:102CD00013D07B68254A93420FD07B68244A9342E5
:102CE0000BD07B68234A934207D07B68224A9342E9
:102CF00003D07B68214A934208D1FB68204A1340E5
:102D0000FB603B68DB68FA681343FB60FB6880226A
:102D100093431A003B685B691343FB607B68FA6866
:102D20001A603B689A687B68DA623B681A687B685D
:102D30009A627B680C4A93420BD07B680D4A93429F
:102D400007D07B680C4A934203D07B680B4A9342BE
:102D500003D13B681A697B681A637B6801225A6158
:102D6000C046BD4604B080BD002C014000040040B8
:102D70000020004000400140004401400048014064
:102D8000FFFCFFFF80B582B000AF7860C046BD4653
:102D900002B080BD80B582B000AF7860C046BD464D
:102DA00002B080BDB0B582B000AF05000C001000CD
:102DB0001900FB1D2A1C1A70BB1D221C1A707B1DDA
:102DC000021C1A70BB1C0A1C1A80FB1D1B78112BDD
:102DD00045D8FB1D1B78244A1B01D3180433BA695C
:102DE0001A60FB1D1B78204A1B01D3180833BA1C3C
:102DF00012881A80FB1D1B781B4A1B01D3180B334A
:102E0000BA1D12781A70FB1D1B78174A1B01D318C4
:102E10000A337A1D12781A70FB1D1B78124A1B01A7
:102E2000D3180D3300221A70FB1D1B780E4A1B01AC
:102E3000D3180C3300221A70FB1D1B780A4A1B01A1
:102E4000D3180E3300221A70FB1D1B78064A1B0193
:102E5000D3180F3300221A70044B00221A60C046A8
:102E6000BD4602B0B0BDC0469C00002098000020C6
:102E700080B582B002AF534B009301230A220A218E
:102E80000020FFF78FFF4F4B009302230A220A21F5
:102E90000120FFF787FF4B4B009304230A220A21EE
:102EA0000220FFF77FFF474B009308230A220A21E5
:102EB0000320FFF777FF434B009310230A220A21D8
:102EC0000420FFF76FFF3F4B009320230A220A21C3
:102ED0000520FFF767FF3B4B009340230A220A219E
:102EE0000620FFF75FFF374B009380230A220A2159
:102EF0000720FFF757FF80235A00324B009313003F
:102F00000A220A210820FFF74DFF80239A002D4B4B
:102F1000009313000A220A210920FFF743FF8023B0
:102F2000DA00284B009313000A220A210A20FFF737
:102F300039FF80231A01234B009313000A220A2130
:102F40000B20FFF72FFF80235A011E4B0093130025
:102F50000A220A210C20FFF725FF80239A01194B32
:102F6000009313000A220A210D20FFF71BFF802384
:102F7000DA01144B009313000A220A210E20FFF7F6
:102F800011FF80231A020F4B009313000A220A211B
:102F90000F20FFF707FF9023DB05009302230A228F
:102FA0000A211020FFF7FEFE80231A029023DB0582
:102FB000009313000A220A211120FFF7F3FEC046F6
:102FC000BD4680BD0004004880B584B000AF02005B
:102FD000FB1D1A700F23FB1800221A70FB1D1B78B3
:102FE000112B09D8FB1D1A780F23FB180649120173
:102FF0008A180E3212781A700F23FB181B781800EB
:10300000BD4604B080BDC0469C00002080B582B0A3
:1030100000AF00237B60044B1B687B607B6818005B
:10302000BD4602B080BDC0469800002090B583B078
:1030300000AFFB1D00221A70C5E0FB1D1B78664A1D
:103040001B01D31804331868FB1D1B78624A1B014F
:10305000D31808331A88FB1D1C781100FDF786FC75
:10306000030019005C4B2201D154FB1D1A785A4B06
:103070001201D35C002B4CD1FB1D1B78564A1B015F
:10308000D3180C331A78FB1D1B7853491B01CB183E
:103090000A331B789A420FD2FB1D1B784E491A0146
:1030A0008A180C3212780132D1B24B4A1B01D31864
:1030B0000C330A1C1A702CE0FB1D1B78464A1B01BE
:1030C000D3180E3301221A70FB1D1B78424A1B01D4
:1030D000D3180D3300221A70FB1D1978FB1D1B78C5
:1030E0003D4A0901895C3C4A1B01D3180F330A1C75
:1030F0001A703A4B1B68FA1D1278012191400A00A0
:103100001A43364B1A60354B1B689B039A0B334BA3
:103110001A60FB1D1A78304B1201D35C012B4DD184
:10312000FB1D1B782C4A1B01D3180D331A78FB1D8D
:103130001B7829491B01CB180B331B789A420FD2FD
:10314000FB1D1B7824491A018A180D3212780132AE
:10315000D1B2214A1B01D3180D330A1C1A702DE07D
:10316000FB1D1B781C4A1B01D3180E3300221A705A
:10317000FB1D1B78184A1B01D3180C3300221A7050
:10318000FB1D1978FB1D1B78134A0901895C124A43
:103190001B01D3180F330A1C1A70104B1B68FA1D41
:1031A0001278012191400A00D2431A400B4B1A6059
:1031B0000A4B1B689B039A0B084B1A60FB1D1A787D
:1031C000FB1D01321A70FB1D1B78112B00D834E750
:1031D000C046BD4603B090BD9C0000209800002072
:1031E00080B582B000AF0200FB1D1A70FB1D1B787A
:1031F000042B00D981E09A00504BD3181B689F46DE
:10320000802359009023DB0500221800FDF7DEFB28
:10321000802399009023DB0500221800FDF7D6FBE0
:103220008023D9009023DB0500221800FDF7CEFB98
:103230007CE0802359009023DB0501221800FDF774
:10324000C5FB802399009023DB0500221800FDF7C1
:10325000BDFB8023D9009023DB0500221800FDF779
:10326000B5FB63E0802359009023DB0501221800A1
:10327000FDF7ACFB802399009023DB0500221800AA
:10328000FDF7A4FB8023D9009023DB050022180062
:10329000FDF79CFB4AE0802359009023DB050122C7
:1032A0001800FDF793FB802399009023DB05012292
:1032B0001800FDF78BFB8023D9009023DB0500224B
:1032C0001800FDF783FB31E0802359009023DB05D4
:1032D00001221800FDF77AFB802399009023DB057B
:1032E00001221800FDF772FB8023D9009023DB0533
:1032F00001221800FDF76AFB18E080235900902393
:10330000DB0500221800FDF761FB80239900902364
:10331000DB0500221800FDF759FB8023D90090231C
:10332000DB0500221800FDF751FBC0460520FCF725
:10333000E7FFC046BD4602B080BDC046CC42000893
:1033400090B589B000AF10203B1800221A703B18CE
:103350006C225A703B189A783F210A409A703B18A9
:103360009A7820210A439A703B189A7810218A4350
:103370009A703B189A780C210A439A703B189A78F5
:1033800002218A439A703B189A7801218A439A70E5
:103390003B18DA787F210A40DA703B18DA7870211E
:1033A0008A43111C40220A43DA703B18DA7808215C
:1033B0008A43DA703B18DA7807218A43111C042209
:1033C0000A43DA703B181A793F210A401A713B18F8
:1033D0001A793F218A43111C04220A431A713B18AF
:1033E0005A793F210A405A713B185A793F218A4342
:1033F000111C04220A435A713B18FF229A713B1890
:10340000FF22DA713B18FF221A723B18FF225A7210
:103410003B189A7A802149420A439A723B189A7A59
:1034200040210A439A723B189A7A38218A439A7249
:103430003B189A7A04218A439A7204003B189A7ABC
:1034400003218A43111C02220A439A721E23FB188D
:1034500000221A700020FFF7C3FE0520FCF750FF82
:103460009023DB05002210211800FDF7AFFA05209C
:10347000FCF746FFFA239B00391945480B22FEF75B
:1034800025FB031E03D01E23FB1801221A70902374
:10349000DB05012210211800FDF798FA0520FCF742
:1034A0002FFF0220FFF79CFE0520FCF729FF1E23BB
:1034B000FB181B78002B3DD13B1D10221A700020F9
:1034C000FFF78EFE0520FCF71BFF9023DB05002293
:1034D00010211800FDF77AFA0520FCF711FFFA23F6
:1034E0009B00391D2A480122FEF7F0FA031E04D082
:1034F0001E23FB1801221A700CE0FA239B00391DD1
:1035000023480A22FEF776FC031E03D01E23FB1875
:1035100001221A709023DB05012210211800FDF70B
:1035200055FA0520FCF7ECFE0220FFF759FE0520B6
:10353000FCF7E6FE1E23FB181B78002B20D11F236F
:10354000FB1800221A7016E01F217B181B7810222E
:10355000BA18D3185A787B181B78391DCB5C9A425D
:1035600003D01E23FB1801221A701F217B181A7822
:103570007B1801321A701F23FB181B78092BE3D923
:103580001E23FB181B781800BD4609B090BDC0462D
:10359000BC01002090B587B000AF78601723FB18FE
:1035A00000221A700C243B1922221A703B197A68E7
:1035B0005A600220FFF714FE0520FCF7A1FE9023BD
:1035C000DB05002210211800FDF700FA0520FCF7AA
:1035D00097FEFA239B00391916480122FEF776FA66
:1035E000031E03D01723FB1801221A70FA239A0036
:1035F0000C23FB18191D0F4813000422FEF766FA6E
:10360000031E03D01723FB1801221A700220FFF7B4
:10361000E7FD0520FCF774FE9023DB050122102155
:103620001800FDF7D3F91723FB181B781800BD46C7
:1036300007B090BDBC01002090B587B000AF7860A6
:103640001723FB1800221A700C243B1905221A704C
:103650003B197A685A600220FFF7C2FD0520FCF78B
:103660004FFE9023DB05002210211800FDF7AEF974
:103670000520FCF745FEFA239B0039191648012264
:10368000FEF724FA031E03D01723FB1801221A7039
:10369000FA239A000C23FB18191D0F48130004226B
:1036A000FEF714FA031E03D01723FB1801221A7029
:1036B0000220FFF795FD0520FCF722FE9023DB0595
:1036C000012210211800FDF781F91723FB181B7840
:1036D0001800BD4607B090BDBC01002080B58CB07D
:1036E00000AF78600A00FB1C1A702F23FB18002221
:1036F0001A70FB1C1B78202B01D9012376E00C23C8
:10370000FB1820221A702E23FB1800221A7010E0DA
:103710007B685A1C7A602E203A18127819780C238C
:10372000FB189B180A1C5A703B181A783B18013278
:103730001A702E23FA18FB1C12781B789A42E7D3D2
:103740009023DB05012210211800FDF73FF9052029
:10375000FCF7D6FD0220FFF743FD0520FCF7D0FD66
:103760009023DB05002210211800FDF72FF9FB1C28
:103770001B789BB201339AB2FA239B000C21791873
:103780001C48FEF7A3F9031E12D02F23FB180122B9
:103790001A700DE000F040FC0200174B134004D5F6
:1037A000013B08225242134301331800FCF7A8FDE5
:1037B0009023DB0508211800FDF7D8F80300012B42
:1037C000E8D00420FFF70CFD02E00520FCF798FD8F
:1037D0009023DB0504211800FDF7C8F8031EF4D080
:1037E0000220FFF7FDFC2F23FB181B781800BD46B5
:1037F0000CB080BDBC0100200700008090B58BB0EC
:1038000000AF14243B19180014231A00002100F003
:10381000FBFB754B5A69744B802109030A435A61BB
:10382000714B5A6980231B0313403B613B696E4B0C
:103830005A696D4B8021C9030A435A616A4B5A6920
:103840008023DB031340FB60FB68674B5A69664BC0
:10385000802189020A435A61634B5A6980239B0283
:103860001340BB60BB68604B5A695F4B8021C90243
:103870000A435A615C4B5A698023DB0213407B6028
:103880007B6880239B01594800221900FDF79EF8B0
:1038900057499023DB0500221800FDF797F8554B98
:1038A0000022C0211800FDF791F83B1980229201F7
:1038B0001A603B1901225A603B1902229A603B1997
:1038C0000022DA603B19494A19001000FCF728FE73
:1038D00021007B18C02212021A600C003B1903223F
:1038E0005A603B1900229A603B19404A19001000A7
:1038F000FCF716FE3B1903221A603B1903225A609B
:103900003B1900229A603B193A4A19001000FCF753
:1039100007FE3B1901221A603B1903225A603B192A
:1039200000229A603A199023DB0511001800FCF779
:10393000F7FD3B19304A1A603B1900225A603B19C7
:1039400001229A603A199023DB0511001800FCF758
:10395000E7FD3B190C221A603B1900225A603B1903
:1039600000229A603A199023DB0511001800FCF739
:10397000D7FD3B191E4A1A603B1901225A603B19B8
:1039800000229A603B190022DA603A199023DB0585
:1039900011001800FCF7C4FD21007B18174A1A60BB
:1039A0007B1800225A607B1801229A600C007B1859
:1039B000134A19001000FCF7B3FD21007B18C02248
:1039C0001A607B1801225A607B1800229A607B18CB
:1039D0000022DA607B18074A19001000FCF7A0FDEE
:1039E000C046BD460BB090BD001002400008004824
:1039F000101F00000014004802800000FFFF0000BC
:103A00000004004880B582B000AFFCF733FC00F042
:103A10006FF8FFF7F3FE00F017F900F059FAFFF71F
:103A20008FFC01235B421800FFF7B4FD01235B42CA
:103A30001800FFF701FE2B4B3B603B0004211800F0
:103A4000FFF74CFEFB1D00221A7018E00420FFF760
:103A5000C7FB3220FCF754FC0320FFF7C1FB3220E8
:103A6000FCF74EFC80231A019023DB05110018009F
:103A7000FCF7ECFFFB1D1A78FB1D01321A70FB1DD1
:103A80001B78312BE2D9184B1800FEF779FF031E83
:103A900000D0FEE7FFF7ECF90320FFF7A1FB32208F
:103AA000FCF72EFC9023DB0504211800FCF75EFFD9
:103AB0000300012B04D10D4B80211800FCF7C6FF39
:103AC0009023DB0508211800FCF750FF0300012BB1
:103AD00004D1064B40211800FCF7B8FFFFF796FA17
:103AE000E0E7C04678563412200200200014004857
:103AF00090B591B000AF10243B19180030231A0084
:103B0000002100F081FA3B00180010231A00002168
:103B100000F07AFA21007B1802221A607B18012239
:103B2000DA607B1810221A617B1800221A627B1857
:103B30001800FCF7B1FF031E01D000F077F83B003E
:103B400007221A603B0000225A603B0000229A6064
:103B50003B000022DA603B0000211800FDF70AFC60
:103B6000031E01D000F062F8C046BD4611B090BD02
:103B700080B584B000AF78607B681B68284A9342A8
:103B800049D1FFF753FA0F23FB1800221A7010E0F7
:103B90000F23FB181B781800FFF716FA031E02D03C
:103BA000204BFA221A800F217B181A787B180132D9
:103BB0001A700F23FB181B780A2BE9D9194B002226
:103BC0009B5E002B18DD174B00229B5E9BB2013BD6
:103BD0009BB21AB2134B1A8080239B011248012218
:103BE0001900FCF7F3FE802319019023DB05012265
:103BF0001800FCF7EBFE0EE080239B010A48002230
:103C00001900FCF7E3FE802319019023DB05002255
:103C10001800FCF7DBFEC046BD4604B080BDC046C0
:103C200000100040840000200008004880B500AF6C
:103C3000C046BD4680BD80B582B000AF78603960B7
:103C4000C046BD4602B080BD80B500AF1B4B1C4ACC
:103C50001A601A4B822252005A60184B00229A6056
:103C6000164BE022D200DA60144B00221A61134B8B
:103C700000225A61114B802292009A610F4B102250
:103C8000DA610E4B00221A620C4B00225A620B4B77
:103C900000229A62094B0722DA62084B00221A635B
:103CA000064B00225A63054B1800FDF74DFD031E1D
:103CB00001D0FFF7BBFFC046BD4680BDBC01002060
:103CC0000030014080B58AB000AF78601423FB1843
:103CD000180014231A00002100F096F97B681B6875
:103CE0001C4A934232D11C4B9A691B4B80214901DB
:103CF0000A439A61184B9A6980235B0113403B6128
:103D00003B69154B5A69144B802189020A435A6159
:103D1000114B5A6980239B021340FB60FB681421FE
:103D20007B18E0221A607B1802225A607B1800225E
:103D30009A607B180322DA607B1800221A617A18D5
:103D40009023DB0511001800FCF7EAFBC046BD46D6
:103D50000AB080BD003001400010024080B582B042
:103D600000AF0F4B9A690E4B01210A439A610C4B2D
:103D70009B69012213407B607B68094BDA69084B21
:103D8000802149050A43DA61054BDA6980235B0526
:103D900013403B603B68C046BD4602B080BDC04694
:103DA0000010024080B500AFC046BD4680BD80B562
:103DB00000AFFEE780B500AFC046BD4680BD80B510
:103DC00000AFC046BD4680BD80B500AFFCF782FAAB
:103DD000C046BD4680BD000080B500AF034B180053
:103DE000FEF722FEC046BD4680BDC0462002002030
:103DF00080B584B000AF7860114B1B68002B02D1F6
:103E00000F4B104A1A600E4B1B68FB600C4B1A6874
:103E10007B68D3186A46934207D900F0CBF80300B9
:103E20000C221A6001235B4206E0054B1A687B688E
:103E3000D218034B1A60FB681800BD4604B080BD61
:103E4000880000206802002080B500AF1A4B1A6875
:103E5000194B01210A431A60174B5A68164B174930
:103E60000A405A60144B1A68134B15490A401A60ED
:103E7000114B1A68104B13490A401A600E4B5A68CE
:103E80000D4B11490A405A600B4BDA6A0A4B0F215D
:103E90008A43DA62084B1A6B074B0C490A401A63D3
:103EA000054B5A6B044B01218A435A63024B002293
:103EB0009A60C046BD4680BD001002400CB8FF08A5
:103EC000FFFFF6FEFFFFFBFFFFFFC0FFECFEFFFF63
:103ED00080B500AF0D4B0E4A1A600C4BFA2252010E
:103EE0005A600A4B00229A60084B0A22DA60074B9C
:103EF00000229A61054B1800FEF7A2FC031E01D0B8
:103F0000FFF794FEC046BD4680BDC046200200209B
:103F10000010004080B584B000AF78607B681B68FB
:103F20000D4A934213D10D4BDA690C4B10210A4311
:103F3000DA610A4BDB6910221340FB60FB68002248
:103F400000211120FCF7A2FA1120FCF7BFFAC046AD
:103F5000BD4604B080BDC0460010004000100240C5
:103F60000D4885460D480E490E4A002302E0D458FC
:103F7000C4500433C4188C42F9D30B4A0B4C0023B1
:103F800001E013600432A242FBD3FFF75DFF00F0B3
:103F900017F8FFF737FDFEE70020002000000020A3
:103FA00068000020F8420008680000206402002039
:103FB000FEE70000014B18687047C046040000206F
:103FC00070B500260C4D0D4C641BA410A64209D1FF
:103FD000002600F0CFF80A4D0A4C641BA410A6423C
:103FE00005D170BDB300EB5898470136EEE7B3003A
:103FF000EB5898470136F2E7F0420008F04200081B
:10400000F0420008F442000803001218934200D165
:10401000704719700133F9E7124B10B51C68A36B98
:10402000002B0FD1182000F029F80F4BA06303607C
:104030000E4B012243600E4B83600B2383810023D0
:1040400002614361A46B0B4A206961690A4BFCF76A
:10405000E7F801220023801859412061616148007E
:10406000400810BD040000200E33CDAB34126DE6C5
:10407000ECDE05002D7F954C2DF4515810B5034B07
:104080000100186800F004F810BDC04604000020CC
:10409000032370B5CD1C9D43083506000C2D1ED2A0
:1040A0000C25A9421DD8300000F062F8254A14689A
:1040B0002100002919D1244C2368002B03D13000A2
:1040C00000F044F820602900300000F03FF8431C65
:1040D0002BD10C233000336000F04BF803E0002DAF
:1040E000DFDA0C233360002070BD0B685B1B19D432
:1040F0000B2B03D90B60CC18256003E04B688C4276
:104100000DD11360300000F034F8200007220B308E
:10411000231D9043C31AE7D05A42E250E4E763609C
:104120000C00EFE70C004968C3E70323C41C9C4361
:10413000A042E1D0211A300000F008F8431CDBD186
:10414000C7E7C0468C00002090000020002370B517
:10415000064C050008002360FFF74AFE431C03D10C
:104160002368002B00D02B6070BDC0466002002089
:1041700070477047F8B5C046F8BC08BC9E4670470B
:0C418000F8B5C046F8BC08BC9E4670476D
:10418C002E2E2F447269766572732F53544D333231
:10419C00463078785F48414C5F4472697665722F7F
:1041AC005372632F73746D3332663078785F686145
:1041BC006C5F636F727465782E6300002E2E2F4433
:1041CC007269766572732F53544D3332463078785A
:1041DC005F48414C5F4472697665722F5372632F4E
:1041EC0073746D3332663078785F68616C5F6770BA
:1041FC00696F2E63000000002E2E2F4472697665C5
:10420C0072732F53544D3332463078785F48414C9B
:10421C005F4472697665722F5372632F73746D33BA
:10422C0032663078785F68616C5F7263632E63000E
:10423C0002030405060708090A0B0C0D0E0F1010DB
:10424C000102030405060708090A0B0C0D0E0F10DA
:10425C002E2E2F447269766572732F53544D333260
:10426C00463078785F48414C5F4472697665722FAE
:10427C005372632F73746D3332663078785F686174
:10428C006C5F7370692E63002E2E2F4472697665F5
:10429C0072732F53544D3332463078785F48414C0B
:1042AC005F4472697665722F5372632F73746D332A
:1042BC0032663078785F68616C5F74696D2E63006C
:1042CC0000320008323200086432000896320008CE
:1042DC00C8320008000000000000000001020304C6
:0442EC0006070809B0
:0442F000E9000008D9
:0442F400C1000008FD
:1042F80000127A0008000020000000000000000002
:1043080000000000000000000000000000000000A5
:104318000000000000000000000000000000000095
:104328000000000000000000000000000000000085
:104338000000000000000000000000000000000075
:104348000000000000000000000000000000000065
:0843580000000000000000005D
:0400000508003F614F
:00000001FF
