:020000040000FA
:0400000014EF00F009
:100008005982FACF3BF0FBCF3CF0F2BAF2A402D00F
:10001800E1EC07F03CC0FBFF3BC0FAFF599211002E
:1000280076EF05F0ADEC05F083B000D1390E3D6EEA
:10003800000E3E6EFEEC06F0E806D8A409D0B10E1C
:100048003D6E000E3E6E39C03FF065EC04F0EED018
:100058002D04D8A4EBD0000E2D6EB10E3D6E000E0F
:100068003E6E430E3F6E65EC04F0B10E3D6E000E21
:100078003E6E780E3F6E65EC04F0D8D061C060F03B
:1000880062C061F063C062F064C063F065C064F090
:1000980066C065F067C066F068C067F069C068F060
:1000A8003AC069F0000E2B6E000E2A6E600E2A24EC
:1000B8004F6E506A000E50224FC03DF050C03EF0C7
:1000C8002B500C0D8D0EF3243F6E000EF420406E65
:1000D8002B500C0D960EF324D96E000EF420DA6E18
:1000E800DF504D6E4D50416E426A3AEC05F03D507E
:1000F8003E10D8A42CD0000E0001606F000E616F76
:10010800000E626F000E636F000E646F000E656F65
:10011800000E666F000E676F000E686F000E696F45
:100128002B500C0D970EF324D96E000EF420DA6EC6
:10013800DECF4DF0DDCF4EF001D874D00500FA6E59
:100148004D50FD6E4E50FE6EFF6AFA501200000EC2
:10015800296E2B0E00016219D8B404D02D0E621935
:10016800D8A45CD02E0E6519D8A458D0000E286EDD
:10017800620E2824D96EDA6A000EDA22DF50291AB4
:10018800282A070E2864F4D72950D8A447D0000E8F
:10019800286E620E2824D96EDA6A000EDA22340E2E
:1001A8002824E16EE26A000EE222DFCFE7FF282A68
:1001B800040E2864EED7000E286E670E2824D96E28
:1001C800DA6A000EDA222F0E2824E16EE26A000EA7
:1001D800E222DFCFE7FF282A010E2864EED7340E8B
:1001E800496E000E4A6E2F0E4B6E000E4C6E28ECB8
:1001F80001F0000E0001606F000E616F000E626F6B
:10020800000E636F000E646F000E656F000E666F60
:10021800000E676F000E686F000E696F2A2A080EBD
:100228002A6444D72B2A020E2B643ED7B10E3D6EAA
:10023800000E3E6E3A0E3F6E000E406EECEC02F081
:10024800E806D8A412001AD7010E416E010EB5ECCB
:1002580007F0010E3D6E010E73EC07F0C80E3D6EFF
:10026800000E17EC07F0010E416E010EB5EC07F019
:10027800010E3D6E010E73EC07F0010E3D6E0F0E80
:1002880017EC07F0020E3D6E090E17EC07F0010E91
:100298003D6E0F0E17EC07F0020E3D6E010E73EC6B
:1002A80007F0000E3D6E49C0D9FF4AC0DAFFDF50A3
:1002B8007FEC02F0010E3D6E080E73EC07F0000EA5
:1002C800416E20EE01F04950D9264A50DA22DF501B
:1002D800E6EC01F0000E416E20EE02F04950D926FE
:1002E8004A50DA22DF50E6EC01F0020E3D6E1C0E99
:1002F80073EC07F0000E3D6E2E0E7FEC02F0010E3F
:100308003D6E210E73EC07F0000E416E20EE04F0F6
:100318004950D9264A50DA22DF50E6EC01F0010EA6
:100328003D6E2C0E73EC07F0010E3D6E060E17ECB9
:1003380007F0020E3D6E090E17EC07F0010E3D6E38
:10034800060E17EC07F0010E3D6E310E73EC07F048
:10035800000E3D6E430E7FEC02F0010E3D6E420E24
:1003680073EC07F0000E416E4BC0D9FF4CC0DAFFAA
:10037800DF50E6EC01F0000E416E20EE01F04B502C
:10038800D9264C50DA22DF50E6EC01F0010E3D6E22
:10039800580E73EC07F0000E3D6E250E7FEC02F050
:1003A800020E3D6E580E73EC07F0000E3D6E520EB5
:1003B8007FEC02F0000E3D6E480E7FEC02F085ECFB
:1003C80006F01200466E000E486E000E476E090ECB
:1003D80047184810D8A41CD04150D8B40BD0000EF0
:1003E8001F24D96E010E2020DA6EFF0EDF6E1F4A21
:1003F800202A08D0000E1F24D96E010E2020DA6EA4
:10040800000EF4D7020E3D6E1F50F70F73EC07F085
:100418004150D8B428D0000E1F24D96E010E2020D8
:10042800DA6EA00E426EFC0E436E4650120D660E3A
:10043800446EFE0E456EF3504426F4504522475054
:10044800442648504522425044264350452244C041
:10045800F6FF45C0F7FFF86A0800F550FF0ADF6E9F
:100468001F4A202A25D0A00E426EFC0E436E46502D
:10047800120D660E446EFE0E456EF3504426F4507F
:10048800452247504426485045224250442643506E
:10049800452244C0F6FF45C0F7FFF86A000E1F2446
:1004A800D96E010E2020DA6E0800F5CFDFFFD8D70D
:1004B800474A482A485004E1120E475CD8A087D71B
:1004C8004150D8B40BD0000E1F24D96E010E202045
:1004D800DA6EFF0EDF6E1F4A202A08D0000E1F2496
:1004E800D96E010E2020DA6E000EF4D7640E1F5E5E
:1004F800000E205A1200426E000E436E3D50D8B4D2
:1005080028D0000E1F24D96E010E2020DA6E600E4E
:100518003E6EFF0E3F6E4250050D810E406EFC0E82
:10052800416EF3504026F450412243504026000EBD
:1005380041223E5040263F50412240C0F6FF41C074
:10054800F7FFF86A0800F550FF0ADF6E1F4A202AF5
:1005580025D0600E3E6EFF0E3F6E4250050D810E97
:10056800406EFC0E416EF3504026F4504122435039
:100578004026000E41223E5040263F50412240C0B6
:10058800F6FF41C0F7FFF86A000E1F24D96E010E6E
:100598002020DA6E0800F5CFDFFFD8D7432A040EF3
:1005A8004364ACD73D50D8B40BD0000E1F24D96E8D
:1005B800010E2020DA6EFF0EDF6E1F4A202A12007D
:1005C800000E1F24D96E010E2020DA6E000EF4D71B
:1005D800000E446E20EE15F03D50D9263E50DA222A
:1005E80010EE16F03D50E1263E50E222DE50E618AD
:1005F800D8B453D020EE17F03D50D9263E50DA2219
:10060800DF50D8A44AD020EE17F03D50D9263E50EE
:10061800DA22DE04D8A408D020EE17F03D50D926FF
:100628003E50DA22000EDF6E20EE15F03D50D9263E
:100638003E50DA22DF50416E41503D24426E000E9A
:100648003E20436E010E4224D96E000E4320DA6E1E
:100658003FC0E1FF40C0E2FFDFCFE7FF20EE15F02B
:100668003D50D9263E50DA22DF2A3DC0D9FF3EC090
:10067800DAFF10EE15F03D50E1263E50E222DE5042
:10068800E618D8A408D020EE15F03D50D9263E50E3
:10069800DA22000EDF6E010E446E445012002EEC7A
:1006A80008F0F80E486EFF0E496E020E4A6EE00E14
:1006B8004B6E0F0E4C6E000E38EC06F0F20E486EC4
:1006C800FF0E496E020E4A6EEE0E4B6E0F0E4C6E0A
:1006D800010E38EC06F0F50E486EFF0E496E020E5C
:1006E8004A6ED20E4B6E0F0E4C6E020E38EC06F0B0
:1006F800B10E3D6E000E3E6E040E3F6EE3EC05F04B
:100708008A0E3D6E0D0E3E6E24EC08F0FCEC04F0F3
:10071800010E416E010EB5EC07F0010E3D6E010EA3
:1007280073EC07F03E0E456EFF0E466EB40E476E34
:10073800AFEC03F085EC06F085EC07F085EC07F0EC
:10074800C80E3D6E000E17EC07F085EC06F030EC95
:1007580008F08C9012004750C8083D6E000ED8A0D3
:10076800E82A00083E6E000E406E040E3F6EBAEC9A
:1007780004F03D504A6E010E3D6E010E73EC07F019
:10078800000E4C6E000E4B6E38D047C03DF03E6AEE
:10079800000E406E020E3F6EBAEC04F03D504B5C0A
:1007A8003E504C58D8B00DD045C0F6FF46C0F7FFB4
:1007B800F86A000E486E010E496E4A504826000E2F
:1007C8000ED045C0F6FF46C0F7FFF86A4A50030D41
:1007D800000E486E010E496EF3504826F450492227
:1007E8004B504824D96E4C504920DA6E0800F5CF9A
:1007F800DFFF454A462A4B4A4C2A4750486E496A09
:1008080048504B5C49504C58D8B01200BED7406E87
:10081800F00E921640B002D08D9001D08D803DC070
:100828003EF03E3A0F0E3E160F0E3E163DC03FF00C
:100838000F0E3F163F38F00B3E103D6EF00E891636
:10084800210EE82EFED700F03D500F0B8912210E25
:10085800E82EFED700F08D82210EE82EFED700F09C
:100868008D92210EE82EFED700F040B002D08D9078
:1008780001D08D803DC03EF03E3A0F0E3E160F0E61
:100888003E163DC03FF00F0E3F163F38F00B3E10AE
:100898003D6EF00E8916210EE82EFED700F03D5071
:1008A8000F0B8912210EE82EFED700F08D82210E43
:1008B800E82EFED700F08D92210EE82EFED700F02C
:1008C800120020EE17F03D50D9263E50DA22DF50B4
:1008D800D8A4120020EE16F03D50D9263E50DA2258
:1008E800DF50406E40503D24416E000E3E20426E67
:1008F800010E4124D96E000E4220DA6E3FC0DFFFA0
:1009080020EE16F03D50D9263E50DA22DF2A3DC0AF
:10091800D9FF3EC0DAFF10EE16F03D50E1263E50FA
:10092800E222DE50E618D8A408D020EE16F03D509A
:10093800D9263E50DA22000EDF6E20EE15F03D502B
:10094800D9263E50DA2210EE16F03D50E1263E50F0
:10095800E222DE50E618D8A4120020EE17F03D502F
:10096800D9263E50DA22010EDF6E1200000E426ECA
:1009780040AE06D03F6C401ED8B0402A010E426EF1
:100988003EAE06D03D6C3E1ED8B03E2A010E421A3D
:10099800000E446E000E436E3F504010D8B41CD079
:1009A800010E416E04D0D8903F364036412A40AE01
:1009B800FAD7D890433644363F503D5C40503E58B5
:1009C800D8A005D03F503D5E40503E5A4380D89055
:1009D80040323F32412EEDD74250D8B404D0436C58
:1009E800441ED8B0442A43C03DF044C03EF0120033
:1009F80020EE01F010EE3DF00D0EDBCFE3FFE80630
:100A0800FCE296929690000E4B6EF00E92168D9028
:100A1800F00E8916210EE82EFED700F03D0E4B246D
:100A2800D96EDA6A000EDA22DF500F0B8912210E16
:100A3800E82EFED700F08D82210EE82EFED700F0BA
:100A48008D92210EE82EFED700F0210EE82EFED75B
:100A580000F0210EE82EFED700F0210EE82EFED77A
:100A680000F04B2A0D0E4B64D0D712003DC045F064
:100A78003EC046F03FC047F040C048F007D04106AE
:100A8800D8A04206454A462A474A482A41504210B9
:100A9800D8B40CD047C0D9FF48C0DAFF45C0E1FF41
:100AA80046C0E2FFDE50E618D8B4E9D741504210FC
:100AB800D8A405D0000E3E6E000E3D6E120045C053
:100AC800D9FF46C0DAFFDF50436E47C0D9FF48C0A0
:100AD800DAFFDF50446E4450435C3D6E3E6AD8A056
:100AE8003E061200900EF66E0E0EF76E000EF86EB1
:100AF80000EEC9F010EE2CF00900F5CFEEFFE5503E
:100B0800E150FAE12E0EF66E0F0EF76E000EF86E3B
:100B180000EE01F010EE1EF00900F5CFEEFFE550F3
:100B2800E150FAE101EE00F0C80EEE6AE806FDE1D8
:100B380000EE60F0690EEE6AE806FDE100EE1FF0D7
:100B48001C0EEE6AE806FDE1599059920001D8EFB3
:100B580007F02C04D8A41200000E2C6E010E3D6E76
:100B6800010E73EC07F02704D8A410D0010E3D6ED7
:100B7800060E17EC07F0020E3D6E0F0E17EC07F08D
:100B8800010E3D6E060E17EC07F00FD0010E3D6EFC
:100B9800060E17EC07F0020E3D6E090E17EC07F073
:100BA800010E3D6E060E17EC07F085EC06F0275097
:100BB800D8A402D0010E01D0000E276E12003D50BD
:100BC8003E10D8B4120020EE01F03D50D9263E5018
:100BD800DA22000EDF6E3DC0D9FF3EC0DAFF3FC00B
:100BE800DFFF20EE17F03D50D9263E50DA22000EE6
:100BF800DF6E20EE15F03D50D9263E50DA22000E69
:100C0800DF6E20EE16F03D50D9263E50DA22000E57
:100C1800DF6E12008C80000E466E000E456E11D0FD
:100C280045504124436E46504220446E43C0F6FF6F
:100C380044C0F7FFF86A0800F55004EC08F0454A8C
:100C4800462A41C03DF042C03EF030EC07F03D502E
:100C5800455C3E504658D8A0E3D7FEEC07F00009A3
:100C6800D8B4FBD78C9012004D6E4D500C0D8D0EE4
:100C7800F3243D6E000EF4203E6E48C03FF049C09C
:100C880040F04AC041F0426A61EC06F04D500C0D4C
:100C9800960EF324D96E000EF420DA6E4AC0DFFFF8
:100CA8004D500C0D970EF324D96E000EF420DA6E19
:100CB8004BC0DEFF4CC0DDFF12003FC045F040C016
:100CC80046F03DC043F03EC044F012D045C0F6FFA8
:100CD80046C0F7FFF86A0800F5CF47F0454A462AAC
:100CE80043C0D9FF44C0DAFF47C0DFFF434A442A64
:100CF8004106D8A042064128E9E14228D8B41200AA
:100D0800E5D7010E416E010EB5EC07F0000E446EFA
:100D1800000E4424D96EDA6A010EDA22DF50436EDF
:100D28004350D8A405D0060E3D6E000E0BEC04F01F
:100D380043C03DF0010E0BEC04F0442AC70E446496
:100D4800E7D71200080EB86E900EAB6E240EAC6E8C
:100D5800110EAF6E040EB06E000E3D6E000E3E6EAC
:100D68001AEC08F0000E3D6E000E3E6E15EC08F011
:100D7800000E3D6E000E3E6E1FEC08F0000E2E6E4B
:100D88001200214A222AF50E215C010E2258D8A011
:100D980006D0000E226E000E216E010E2C6E234A24
:100DA800242A110E235C270E2458D8A01200000E06
:100DB800246E000E236E010E2D6E1200000E8D6E35
:100DC800000E8C6E000E896E000E8A6E000E8B6E01
:100DD800040E966EF40E926EFD0E936EBB0E946E1C
:100DE800020E956E000E7E6E000E7F6E000E7C6EFB
:100DF800F18E1200000E3F6E0AEC08F00009D8B41C
:100E080010D0CEEC07F03DC0D9FF3EC0DAFFDF6E50
:100E1800010E3F6E2CEC08F0406E40A202D0000E8E
:100E28003F6E3F5012003E6EC80E3D6402D0C80EA1
:100E38003D6E000E3F6E0BD0000E1F24D96E010EC2
:100E48002020DA6E3EC0DFFF1F4A202A3F2A3D508D
:100E58003F5CD8B01200F0D73DC03FF03EC040F034
:100E680002D03D4A3E2A3DC0F6FF3EC0F7FFF86A71
:100E78000800F5500009D8A4F4D73F503D5C3D6EFA
:100E880040503E583E6E1200000000000100000075
:100E98000A00000064000000E803000010270000BA
:100EA800A086010040420F008096980000E1F505F9
:100EB80000CA9A3BD59CFD0ED76E8E0ED66ED650C4
:100EC800D7CF3DF03E6A3DC03EF03D6A3D10576EBB
:100ED8003E50586EF294F28A930ED56E1200406E10
:100EE8003D50640DF3CF3EF0F4CF3FF040503E2626
:100EF800000E3F229B0E3E241F6EFF0E3F20206EE9
:100F08001200000E3F6E0B0E3E6E260E3D6E5E0EFC
:100F1800E82EFED73D2EFCD73E2EFAD73F2A090EE3
:100F28003F64F1D71200000000000022228800CCA4
:100F380011FF0066000001000A006400E8031027A2
:100F480000010A6425502610D8B4120001D81200F6
:100F58000500FA6E2550FD6E2650FE6EFF6AFA50A7
:100F68001200426E42507F0F3D6E000E0BEC04F0F3
:100F780041503F0F3D6E000E0BEC04F0120029ECBF
:100F880008F0E2EC06F010EC08F05EEC07F0A6ECD6
:100F980006F012009EAAFED7000E2E6EABA202D05B
:100FA800AB98AB88AE501200C3EC07F0F28EF28C0F
:100FB80053EC03F016EC00F0FDD7F2945850D76EBE
:100FC80057C0D6FFA6EC07F01200F50E416EFF0ED3
:100FD800426E0EEC06F01200F80E416EFF0E426EE5
:100FE8000EEC06F01200FB0E416EFF0E426E0EEC88
:100FF80006F01200ACA202D0010E1200000E120080
:101008003D6E9EA8FED73DC0ADFF12009EAA02D03D
:10101800010E1200000E1200300ED36E400E9B6EB1
:1010280012003DC053F03EC054F012003DC055F0D0
:101038003EC056F012003DC051F03EC052F01200C2
:101048003DC025F03EC026F01200D08EF18412007B
:0C1058002E501200D59E1200D58E120002
:10FB0400000000000000002E0000060006003E1465
:10FB14003E00287E140012082400342A3C00060209
:10FB240000001C220000221C00002A1C2A00081CC1
:10FB340008006020000008080800002000003008C9
:10FB4400063C42423C00447E4062524A4442424A9D
:10FB5400340E08087E4E4A4A323C4A4A3202721A2D
:10FB64000E344A4A34444A4A3C00002800006028C3
:10FB74000000182442282828284224180000022AB9
:10FB840004003E222E7C0A0A7C7E4A4A343C4242CD
:10FB9400427E42423C7E4A4A427E0A0A023C424A31
:10FBA4003A7E08087E00427E422040403E7E08089D
:10FBB400767E4040407E0C0C7E7E04087E3C4242B1
:10FBC4003C7E0A0A041C22225C7E0A0A744E4A4ABB
:10FBD4003A00027E027E40407E3E40403E7E20202F
:10FBE4007E760808760648380662524A46007E4207
:10FBF400000006083000427E000004020440404039
:10FC0400400002060000302838003E28100010286A
:10FC1400280010283E0018382800083C0A005848DC
:10FC240078003E083000003A0000407A00003E10A0
:10FC34002800003E0000381838003808300010282A
:10FC440010007828100010287800380800002038A8
:10FC54000800083C280038203800182018003830E4
:10FC64003800281028005820180008382000083EC2
:10FC74002200003E0000223E0804020402000000AC
:10FC8400000000005F00000007000700147F147FDD
:10FC940014242A7F2A1223130864623649552250F9
:10FCA4000005030000001C2241000041221C000842
:10FCB4002A1C2A0808083E080800503000000808DA
:10FCC400080808003030000020100804023E5149A2
:10FCD400453E00427F400042615149462141454B27
:10FCE400311814127F1027454545393C4A4949309B
:10FCF40001710905033649494936064949291E0057
:10FD04003636000000563600000008142241141450
:10FD140014141441221408000201510906324979CD
:10FD2400413E7E1111117E7F494949363E41414190
:10FD3400227F4141221C7F494949417F0909010130
:10FD44003E414151327F0808087F00417F41002035
:10FD540040413F017F081422417F404040407F02E0
:10FD640004027F7F0408107F3E4141413E7F090920
:10FD740009063E4151215E7F0919294646494949F0
:10FD84003101017F01013F4040403F1F2040201FBF
:10FD94007F2018207F63140814630304780403612C
:10FDA4005149454300007F4141020408102041416C
:10FDB4007F00000402010204404040404000010270
:10FDC400040020545454787F48444438384444440C
:10FDD40020384444487F3854545418087E0901029A
:10FDE400081454543C7F0804047840447D400020A7
:10FDF40040443D00007F10284400417F40007C04C3
:10FE04001804787C0804047838444444387C141476
:10FE14001408081414187C7C080404084854545426
:10FE240020043F4440203C4040207C1C2040201CB7
:10FE34003C4030403C44281028440C5050503C4432
:10FE440064544C44000836410000007F0000004127
:10FE540036080008082A1C08081C2A080838444CDC
:10FE64004420FCFEFF030303FFFEFC3F7FFFC0C0F2
:10FE7400C0FF7F3F000C0EFFFFFF00000000C0C06A
:10FE8400FFFFFFC0C0000C0E0F030383FFFE7CF0D6
:10FE9400F8FCCEC7C3E1E0E00C0E0FC3C3C3FF7E82
:10FEA4003C6060E0C0C0C0FF7F3E0080E0F87E1F81
:10FEB400FFFFFF060707070606FFFFFF7F7F7F633D
:10FEC4006363E7C7873070F0C0C0C0FF7F3FFCFEAC
:10FED400FFC3C3C3CF8E0C3F7FFFC0C0C0FF7F3FB3
:10FEE40007070703C3F3FF3F0F00F0FCFF0F0300F6
:10FEF40000003CFEFFC3C3C3FFFE3C3F7FFFC0C006
:10FF0400C0FF7F3FFCFEFF030303FFFEFC3071F3E1
:10FF1400C3C3C3FF7F3F0070707000000000000087
:10FF24000E0E0E0000000000007050700000000073
:10FF340000000E0A0E0000000000E0F8FCFEFE7F48
:10FF44003F1F1F3F3E1E0C0080C0C0E0E0E0E0E029
:10FF5400E0C0800000E0E0E0E0E0C0E0E0E0E0E0FD
:10FF6400C0E0E0E0E0E0C000FEFEFEFEFEFE0000B9
:10FF740000000000E4EEFFEEE400E0E0E0E0E080FA
:10FF8400C0E0E0E0C000FFFFFFFFFFFF80C0E0E053
:10FF9400E0E060200F3F7F7FFFFCF8F8F8F8FC708A
:10FFA400400E3F7FFFFFFBF1FBFFFF7F3F0E00FF93
:10FFB400FFFFFFFF0103FFFFFFFFFF0103FFFFFF41
:10FFC400FF00FFFFFFFFFFFFF8F8F8F8F800FFFF5E
:10FFD400FFFFFF00FFFFFFFFFF0703FFFFFFFF001F
:10FFE400FFFFFFFFFFFF3F7FFFFFF1E0C0804F6B8C
:0BFFF4000042740043780053790000C5
:020000040020DA
:08000000FFFFFFFFFFFFFFFF00
:020000040030CA
:0E000000FF061F1EFF8101FF0FC00FE00F4023
:00000001FF
